:020000040000FA
:1000000080312828053008007E1480312100901EA0
:100010000A280B2814282000901E0F2810281428C6
:100020009C31AF24803126280B1F1728182826283A
:100030002100111C1C281D2826282000111C212805
:10004000222826289D31AA25803126287E100900E5
:1000500080312A28FA3084008E3085008630860070
:10006000263087000130FF0006309C31602480314B
:10007000E9308400A73085006230860001308700B7
:100080000030FF0007309C31602480318C308400C8
:10009000273085006430FE000030FF009C3154247E
:1000A0008031FA01FB012100EB01EC01ED01EE01D1
:1000B000EF0120308400013085002E30FE0000303A
:1000C000FF009C3154248031A03084000130850031
:1000D0003230FE000030FF009C31542480317E100D
:1000E00020008431FF2C20004508A9004408A80006
:1000F0002830AA00A830AB0096319326803120002A
:100100002908CB002808CA000030A8000030A90048
:100110002830AA00A830AB00963193268031200009
:100120002908CB002808CA000030A8000030A90028
:100130002830AA00A830AB009631932680312000E9
:100140002908CB002808CA004A084B040319A9282B
:10015000AA28F3284B08F3004A08F2002E30F400D6
:100160000030F5009E31D9268031720873040319DE
:10017000BA28BB28EB2864302000AD000030AE0068
:100180004B08F9004A08F800873150278031790878
:100190002000B0007808AF008831022080312000B4
:1001A0002D08C70046080F3E86000130870047082B
:1001B00081004B08B5004A08B40089310F21803115
:1001C00020004608043E8600013087003408C03F06
:1001D0003508C13FF328200046080E3E8600013056
:1001E000870081010A2A0030A8000030A9002830C9
:1001F000AA00A830AB009631932680312000290850
:10020000CB002808CA004A084B0403190829092909
:1002100022294A0886004B08870053300106031D37
:1002200012291329222946080F3E86000130870033
:100230000103FF3AC70046080F3E860001308700E1
:10024000470881000030A8000030A9002830AA002B
:10025000A830AB0096319326803120002908CB00CE
:100260002808CA004A084B0403193729382981296C
:100270004B08F3004A08F2002E30F4000030F5007D
:100280009E31D926803172087304031948294929FF
:10029000792964302000AD000030AE004B08F90031
:1002A0004A08F80087315027803179082000B000D3
:1002B0007808AF0088310220803120002D08C70067
:1002C0004608103E860001308700470881004B0831
:1002D000B5004A08B40089310F218031200046085A
:1002E000063E8600013087003408C03F3508C13F14
:1002F0008129200046080E3E8600013087008101DA
:100300000A2A0030A8000030A9002830AA00A8302E
:10031000AB0096319326803120002908CB002808B5
:10032000CA004A084B04031996299729B0294A089C
:1003300086004B08870057300106031DA029A1291C
:10034000B0294608103E8600013087000103FF3ABD
:10035000C7004608103E860001308700470881002C
:100360000030A8000030A9002830AA00A830AB0057
:1003700096319326803120002908CB002808CA0036
:100380004A084B040319C529C629CD294B08F90091
:100390004A08F80087315027803100302000A8003B
:1003A0000030A9002830AA00A830AB00963193266F
:1003B000803120002908CB002808CA004A084B04D5
:1003C0000319E329E4290A2A4B08F9004A08F8002E
:1003D00087315027803178082000C70046080E3E3C
:1003E0008600013087004708810046080E3E8600DF
:1003F000013087000108803A703E031C002A012A60
:100400000A2A0F30C70046080E3E860001308700DA
:10041000470881000800613474342B34633473342A
:10042000743474343D3422346F34723461346E3435
:100430006734653477346F3472346C346434223406
:100440000D340A34003400340034003400340034F5
:1004500000340034003400340034003400340034FC
:1004600000340034003400340034003400340034EC
:1004700000340034003400340034003400340034DC
:1004800000340034003400340034003400340034CC
:100490000034003400344F344B3400340034003422
:1004A00000340034003400340034003400340034AC
:1004B000003400340034003400340034003400349C
:1004C000003400340034003400340034003400348C
:1004D0000034003400344534523452344F345234F2
:1004E000003400340034003400340034003400346C
:1004F000003400340034003400340034003400345C
:10050000003400340034003400340034003400344B
:100510000034003400340A346434003461347434F8
:100520002B34633469346934633472340D340A34DF
:10053000003400340034003400340034003400341B
:10054000003400340034003400340034003400340B
:1005500000340034003400340034003400340034FB
:1005600000340034003400340034003400340034EB
:1005700000340034003400340034003400340034DB
:1005800000340034003400340034003400340034CB
:100590000034003400340034003400344F344B3421
:1005A00000340034003400340034003400340034AB
:1005B000003400340034003400340034003400349B
:1005C000003400340034003400340034003400348B
:1005D00000340034003400340034003445345234E4
:1005E00052344F3452340034003400340034003478
:1005F000003400340034003400340034003400345B
:10060000003400340034003400340034003400344A
:100610000034003400340034003400340A34A03490
:100620000F34613474342B34633469346634733476
:1006300072340D340A340034003400340034003491
:10064000003400340034003400340034003400340A
:1006500000340034003400340034003400340034FA
:1006600000340034003400340034003400340034EA
:1006700000340034003400340034003400340034DA
:1006800000340034003400340034003400340034CA
:1006900000340034003400340034003400340034BA
:1006A00000342E340034003400340034003400347C
:1006B000003400340034003400340034003400349A
:1006C000003400340034003400340034003400348A
:1006D000003400340034003400340034003400347A
:1006E00000344534523452344F34523400340034E0
:1006F000003400340034003400340034003400345A
:100700000034003400340034003400340034003449
:100710000034003400340034003400340034003439
:1007200000340A34E834033420003C08CF003D088C
:10073000D0003E08D1003F08D2004008D300410855
:10074000D4004208D5004308D6004F308600003060
:100750008700473FC400C41BAE2BB02B0130B12B28
:1007600000302000C500C6014508CD004608CE0077
:100770004D084E040319BD2BBE2BDC2BCF09D0092D
:10078000D109D209D309D409D509D609CF0A031D45
:10079000DC2BD00A031DDC2BD10A031DDC2BD20A73
:1007A000031DDC2BD30A031DDC2BD40A031DDC2B19
:1007B000D50A031DDC2BD60A2100EE1BE02BE12B12
:1007C000E52BFD30FA05FF30FB056E08803A20006E
:1007D000C40080304402031DF02B013021006D0263
:1007E0000318F32BF42BFA2B01302000C900003042
:1007F000CA00022C21006E082000CA0021006D08EA
:100800002000C900220049082000CC00220048082E
:100810002000CB004D084E04031D0F2C102C142C6F
:100820007A1D132C142C182CFF30CB07FF30CC3D35
:100830001F30D7000030D8002300BF01882CFF30C4
:100840002000D707FF30D83D0A30A000A101A20147
:10085000A301A401A501A601A7014F08A800500803
:10086000A9005108AA005208AB005308AC00540874
:10087000AD005508AE005608AF008D310C25833110
:1008800020002108F6002008F5009E31352683312E
:100890007508303E2000C4005708A03E8600013095
:1008A000870044088100FF30C907FF30CA3DFF3090
:1008B000CB07FF30CC3D0A30A000A101A201A3016B
:1008C000A401A501A601A7014F08A8005008A9008E
:1008D0005108AA005208AB005308AC005408AD0000
:1008E0005508AE005608AF008D31F6258331200043
:1008F0002008CF002108D0002208D1002308D20010
:100900002408D3002508D4002608D5002708D600DF
:1009100020005808803AC40080304402031D922C05
:1009200001305702031C952C962CC22C20004F0836
:100930005004510452045304540455045604031D36
:10094000A22CA32C1F2C4A08803AC40080304402F9
:10095000031DAC2C013049020318AF2CB02C1F2C06
:1009600020004C08803AC40080304402031DBA2C99
:1009700001304B02031CBD2CBE2CC22CFA18C12C1A
:10098000C22C1F2C20004D084E04031DC82CC92C5E
:10099000CD2C7A1DCC2CCD2CE92CFF30D707FF3085
:1009A000D83D4D084E04031DD62CD72CDC2C2B3003
:1009B000C7000030C800E02C2D30C7000030C80050
:1009C0004708C4005708A03E86000130870044084D
:1009D00081003B08AC003A08AB005708A03EC400B9
:1009E0004408AD004C08AF004B08AE009431C4245D
:1009F000833120002C08BB002B08BA0008009E3170
:100A0000F72684314030F2001C30F300A731C427B0
:100A10008431A7314C2784310B178B179D31312539
:100A200084310E302100A400A830A5009E31BD26DF
:100A300084319F31352784319E316A2684318C3050
:100A40002100E3002730E4006430E5000030E600D8
:100A500095311C2584318C302100D4002730D500FD
:100A60006430D6000030D7009631F626843121005C
:100A700055082200DB00210054082200DA009D31D5
:100A80003125843101302100A400A130A5002200CD
:100A90005B082100A70022005A082100A6009E3111
:100AA000BD2684318C302100D4002730D50064303D
:100AB000D6000030D7009C31FD2484315C309D315C
:100AC000442584315C3090313E2084315E30903159
:100AD0003E208431603090313E2084319D3131257B
:100AE00084317E302100A400A030A50022005D08E2
:100AF0002100A70022005C082100A60022005F0858
:100B00002100A90022005E082100A800220061083F
:100B10002100AB00220060082100AA009E31BD2602
:100B20008431E830F2000330F3009D317F258431B9
:100B30008C302100B4002730B5006430B60000309E
:100B4000B7001030B8002730B900C030EA006A089A
:100B5000BA008C312B248431E830F2000330F300EA
:100B60009D317F2584318C302100DB002730DC0073
:100B70006430DD000030DE009C31862484318C300E
:100B80002100D4002730D5006430D6000030D700D3
:100B90009631F6268431210055082200DB00210021
:100BA00054082200DA009D313125843101302100C2
:100BB000A400A130A50022005B082100A7002200AC
:100BC0005A082100A6009E31BD2684312030210024
:100BD000D400A830D5000430D6000030D7008C30C7
:100BE000D8002730D9006430DA000030DB009731BC
:100BF0005B2784318C302100B4002730B50064308D
:100C0000B6000030B7001030B8002730B9000A3005
:100C1000EA006A08BA008831622084318C302100F1
:100C2000D4002730D5006430D6000030D7009D3185
:100C30000E2584318C302100D4002730D50064305B
:100C4000D6000030D7009C31FD2484311030F200F2
:100C50002730F3009D317F2584318C302100DF0067
:100C60002730E0006430E1000030E20090311920CC
:100C700084315E2D8031282820005B0886008701A2
:100C8000403FDD00413FDE005D0884005E088500D6
:100C90001200253A031D4D2E4E2E2C2F5B08860088
:100CA00087010130810741310318810A2200C80100
:100CB000C901FA01FB01FF302100ED00FF30EE0019
:100CC00020005B0886008701403FDD00413FDE00D9
:100CD0005D0884005E0885001200643A0319712ED5
:100CE000722E832E5B0886008701403FDD00413F66
:100CF000DE005D0884005E0885001200693A031D6D
:100D0000822E832EC12E5B08860087010130810769
:100D100041310318810A5C088600870101088400BC
:100D2000850102308107003FDD00013FDE005D08E4
:100D3000E1005E08E200890D893B8909E300E400D7
:100D4000E500E600E700E8005A08BB005908BA00D1
:100D50006108BC006208BD006308BE006408BF00F3
:100D60006508C0006608C1006708C2006808C300C3
:100D700083319423863120003B08DA003A08D900F9
:100D80004F2F5B0886008701403FDD00413FDE00BA
:100D90005D0884005E0885001200733A031DD12EA1
:100DA000D22EF72E5B088600870101308107413182
:100DB0000318810A5C088600870101088400850108
:100DC00002308107003FE900013FEA005A08A6000F
:100DD0005908A5006A08A8006908A7008A317C2282
:100DE000863120002608DA002508D9004F2F5B083D
:100DF00086008701403FDD00413FDE005D08840042
:100E00005E0885001200253A031D072F082F212FA9
:100E10005B08860087010130810741310318810A90
:100E20002530F4000030F5005A08F7005908F600A4
:100E30009531D525863101302000D9000030DA0007
:100E40004F2F5B088600870101308107413103186D
:100E5000810AD901DA014F2F5B0886008701403FE4
:100E6000DD00413FDE005D0884005E08850000086B
:100E7000DF00E0015F08F4006008F5005A08F700A1
:100E80005908F6009531D525863120005B0886008B
:100E900087010130810741310318810A1B2F0800A7
:100EA0002000AB01AC01A401A5015A2F0130F807C5
:100EB0000030F93DAA01AA0A780884007908850063
:100EC0001200203A0319652F662F7B2F78088400C3
:100ED000790885000008F73EA000FF3003180030B5
:100EE000A10000302102053003192002031C792FD4
:100EF0007A2F7B2FAA012A08A000A1012008A600B2
:100F00002108A70026082704031D872F882F562FA6
:100F1000922F0130A4000030A5000130F807003006
:100F2000F93DC62F78088400790885000008A000E4
:100F3000A1012108003A03199E2FC62F20082B3A41
:100F400003198D2F063A0319892FC62F78088400BC
:100F5000790885000008A0002C08F3002B08F20097
:100F60000A30F4000030F5009F31162787317308EE
:100F70002000A20020087202A100031CA203210885
:100F8000303EAB000030223DAC008D2F780884004D
:100F9000790885000008D03EA000FF30031800301B
:100FA000A100003021020A3003192002031CD92FAE
:100FB000DB2F0130DC2F0030A200A3012208A800A3
:100FC0002308A90028082904031DE72FE82FA62FCE
:100FD00024082504031DED2FEE2FFA2F2B09A00066
:100FE0002C09A100A00A0319A10A2008F800210871
:100FF000F900FE2F2C08F9002B08F8000800080063
:10100000013008002000B301AE1F072808280F2870
:10101000AD09AE09AD0A0319AE0AB301B30AB01F98
:10102000122813281C28AF09B009AF0A0319B00A07
:101030000130B1003108B306B401B5012D082E040A
:101040000319232824285328B201B20A302801307A
:10105000AD35AE0D890B28280130B1003108B2073B
:10106000AE1F3328342827280130B435B50D890B3D
:1010700035282E083002031D3F282D082F02031C9F
:101080004228432848282D08AF022E08B03B3414CC
:101090000130AE36AD0C890B49280130B202031D78
:1010A00052285328342833080319572858285D2814
:1010B000B409B509B40A0319B50A3508AE003408F5
:1010C000AD00080021003508C6003408C500C30182
:1010D000C4013808BB003908BC00BD01BE019D3108
:1010E0006B25883172082100BB077308BC3D74086A
:1010F000BD3D7508BE3D3E08C2003D08C1003C082C
:10110000C0003B08BF0045088600460887008101F3
:10111000A731AD278831003A03198F289028D928A4
:101120009C31DC2488312100BB004508860046083C
:1011300087003B0881004408803ABB003708803AAA
:101140003B02031DA528360843020318A828A92836
:10115000CF282100450886004608870001083A0686
:10116000031DB328B428C6280130C5070030C63D8A
:101170000130C3070030C43D45088600460887009B
:1011800081014408B5004308B4000E290130C507A9
:101190000030C63D0130C3070030C43D882821001F
:1011A000340886003508870081012100B401B501AB
:1011B0000E296430F2000030F3009F31552788314A
:1011C0009D316B258831210042087502031DF228EC
:1011D00041087402031DF22840087302031DF2281F
:1011E0003F087202031CF528F62888283408860078
:1011F0003508870081019D3131258831B4302100C7
:10120000A400A030A5004408A7004308A6009E3112
:10121000BD2688319D3194258831D5280800643059
:101220002000AD000030AE003508F9003408F800A9
:1012300087315027893179082000B0007808AF0045
:1012400094311A24893120002D08C0002E08C100D5
:10125000890D893B8909C200C3003508F3003408B1
:10126000F2002E30F4000030F5009E31D92689318D
:1012700073082000BF007208BE003E08013EB600A1
:1012800000303F3DB7003608F8003708F9008731D5
:101290005027893178082000BA007908BB00890DF1
:1012A000893B8909BC00BD003D08F5003C08F400FD
:1012B0003B08F3003A08F2000030F9000030F80073
:1012C0000630F700FE30F6009231A0228931720814
:1012D0002000B6007308B7007408B8007508B9009C
:1012E0004308F5004208F4004108F3004008F2000A
:1012F0000130F9001130F8001130F7001130F6001C
:101300009231A022893172082000B6077308B73DD8
:101310007408B83D7508B93D3908C3003808C200E3
:101320003708C1003608C0004008B6004108B700C1
:101330004208B8004308B9000E30B936B80CB70CF3
:10134000B60C890B9D293908C3003808C20037083C
:10135000C1003608C0004308031DB4290130420211
:10136000031CB329B429BD2900302000C30000307C
:10137000C200FF30C100FF30C00020004108B500AE
:101380004008B40008000730F200A830F3009031A4
:101390000020893173082000AF007208AE002408D5
:1013A000A6002508A700A801A9019D316B25893158
:1013B00072082000A6077308A73D7408A83D7508A9
:1013C000A93D2908AD002808AC002708AB00260875
:1013D000AA009D311F2589312000B101B201A7313A
:1013E000AD278931003A0319F629F729552A9C318E
:1013F000DC2489312000A6002608B000310820072F
:10140000A6003208213DA70026088600270887008D
:10141000300881003208803AA6002F08803A260260
:10142000031D142A2E0831020318172A182A2F2AFE
:101430002000320885003108840007308407A83076
:10144000853D00083006031D262A272A2C2A013054
:10145000B1070030B23D552AB101B201552A013021
:101460002000B1070030B23D0A3030060319392A96
:101470003A2A482A3208803AA6002308803A2602EF
:10148000031D442A22083102031C472A482A552AF0
:1014900020003108200786003208213D87008101A5
:1014A0003208A1003108A0007B2A9D316B258931CB
:1014B00020002D087502031D672A2C087402031DE5
:1014C000672A2B087302031D672A2A087202031C6D
:1014D0006A2A6B2A732A2008860021088700810166
:1014E000A001A1017B2A6430F2000030F3009F319B
:1014F00055278931EF2908006230860001308700C6
:1015000029308400003085000730F80016001A00EA
:10151000F80B862A20002808B5002708B4003408F4
:101520003504031D942A952A992A2930B4000030E5
:10153000B5003508F3003408F200903100208A31FC
:1015400073082000B9007208B80021006E0820005E
:10155000B70021006D082000B600B71BB02AB12AE1
:10156000C52A3708803AF8003908803A7802031D06
:10157000BB2A38083602031CBE2ABF2AC02AC52A45
:1015800020003708B9003608B80020003908B70035
:101590003808B600220049082000B300220048089D
:1015A0002000B2007A18D52AD62AF62AE82A203056
:1015B000F4000030F50020002608F7002508F600AA
:1015C0009531D5258A3101302000B8070030B93D6A
:1015D0003908803AF8003308803A7802031DF22A6D
:1015E00032083802031CF52AF62AD72A2000B00157
:1015F000B101162B2000340884003508850000084E
:10160000F800F9017808F4007908F5002608F700D9
:101610002508F6009531D5258A3101302000B40720
:101620000030B53D0130B0070030B13D3108803A9F
:10163000F8003708803A7802031D202B3608300264
:10164000031C232B242BFA2A7A1C272B282B492B0B
:101650003A2B2030F4000030F50020002608F70077
:101660002508F6009531D5258A3101302000B807CC
:101670000030B93D20003908803AF8003308803A3C
:101680007802031D452B32083802031C482B492BD6
:10169000292B20003908A6003808A50008009D3134
:1016A00094258B31562B9C31DC248B31A731AD270F
:1016B0008B31003A031D5D2B5E2B532B253021000F
:1016C000A400A830A5004808A7004708A6009E313E
:1016D000BD268B312100490886004A088700810118
:1016E0004A08B5004908B4004C08B7004B08B600DA
:1016F0004808CE004708CD0081304D0784004E08D1
:1017000003184E0A8500003FB800013FB9004808A1
:10171000D0004708CF0080304F07840050080318DE
:10172000500A85000008D1005108BA0088316220B3
:101730008B3121003508D3003408D20052085304FD
:10174000031DA32BA42BA52B1A2C4A082000A500AF
:10175000210049082000A40021004708403ECD0098
:101760000030483DCE004D082000A60021004E0864
:101770002000A70094316E248B312000240825041A
:101780000319C32BC42BE02B9D3131258B316A30DB
:101790002100A400A030A5004808A7004708A60023
:1017A0004A08A9004908A8009E31BD268B319D3109
:1017B00094258B3101302100C7000030C8002A2C4D
:1017C00021004A082000A500210049082000A400AB
:1017D00021004708603ECD000030483DCE004D0856
:1017E0002000A60021004E082000A70094316E249E
:1017F0008B312000240825040319FF2B002C6A2BB1
:101800009D3131258B3155302100A400A030A50039
:101810004808A7004708A6004A08A9004908A800E8
:101820009E31BD268B319D3194258B312100C7011E
:10183000C8012A2C9D3131258B31EC302100A400C8
:10184000A030A5004808A7004708A6009E31BD2685
:101850008B31132C080021003808BB003908BC006C
:10186000BD01BE019D316B258C3172082100BB0783
:101870007308BC3D7408BD3D7508BE3D3E0822009E
:10188000C10021003D082200C00021003C082200C8
:10189000BF0021003B082200BE00BA2C2100350801
:1018A0002000A100210034082000A00021003708FA
:1018B0002000A300210036082000A20021003908E2
:1018C0002000A500210038082000A4008931C32190
:1018D0008C31200021082200CB00200020082200AB
:1018E000CA004A084B040319762C772C9B2C9D3197
:1018F00031258C31F7302100A400A030A500350837
:10190000A7003408A6009E31BD268C319D311F25CD
:101910008C31210035082000C5002100340820004A
:10192000C40021003A08BB003B082000C6008031FB
:1019300073208C31AE2C9D3131258C31DF3021006C
:10194000A400A030A5009E31BD268C319D311F25FD
:101950008C3121003A089F31DC278C3121003A0874
:101960000E3E86000130870001080319B82CB92CFF
:10197000BA2CD02C9D316B258C3122004108750288
:10198000031DCC2C40087402031DCC2C3F087302AD
:10199000031DCC2C3E087202031CCF2CD02C4E2CE5
:1019A0009D3131258C3120302100A400A030A500CC
:1019B0003A080F3E8600013087000108A600A70103
:1019C000A61BA7033A08043E860001308700403F6B
:1019D000A800413FA9003A08103E86000130870068
:1019E0000108AA00AB01AA1BAB033A08063E860019
:1019F00001308700403FAC00413FAD003A080E3E49
:101A00008600013087000108AE00AF01AE1BAF03B6
:101A10009E31BD268C310800F4012830860000304C
:101A20008700473FF200F21F162D172D382D20009A
:101A3000A809A909AA09AB09AC09AD09AE09AF0902
:101A4000A80A031D362DA90A031D362DAA0A031D57
:101A5000362DAB0A031D362DAC0A031D362DAD0AFB
:101A6000031D362DAE0A031D362DAF0AF401F40A0C
:101A70002030860000308700473FF200F21F412DE2
:101A8000422D612D2000A009A109A209A309A409E2
:101A9000A509A609A709A00A031D612DA10A031D16
:101AA000612DA20A031D612DA30A031D612DA40A45
:101AB000031D612DA50A031D612DA60A031D612DBD
:101AC000A70A20002008210422042304240425045A
:101AD0002604270403196D2D6E2DC12DF301F30A81
:101AE0007D2DA035A10DA20DA30DA40DA50DA60D54
:101AF000A70D0130F2007208F307A71F802D812D7A
:101B0000712D27082F02031D9F2D26082E02031D6D
:101B10009F2D25082D02031D9F2D24082C02031D37
:101B20009F2D23082B02031D9F2D22082A02031D2F
:101B30009F2D21082902031D9F2D20082802031C28
:101B4000A22DA32DB32D2008A8022108A93B22080D
:101B5000AA3B2308AB3B2408AC3B2508AD3B260839
:101B6000AE3B2708AF3BA736A60CA50CA40CA30CD4
:101B7000A20CA10CA00C0130F302031DC02DC12D3D
:101B8000812D74080319C52DC62DE42DA809A909B6
:101B9000AA09AB09AC09AD09AE09AF09A80A031D32
:101BA000E42DA90A031DE42DAA0A031DE42DAB0AA6
:101BB000031DE42DAC0A031DE42DAD0A031DE42D25
:101BC000AE0A031DE42DAF0A20002808A000290852
:101BD000A1002A08A2002B08A3002C08A4002D08AD
:101BE000A5002E08A6002F08A70008002000B101BC
:101BF0002030860000308700473FF200F21F012EA0
:101C0000022E242E2000A009A109A209A309A409DB
:101C1000A509A609A709A00A031D212EA10A031DD3
:101C2000212EA20A031D212EA30A031D212EA40A80
:101C3000031D212EA50A031D212EA60A031D212EF8
:101C4000A70A2000B101B10A2830860000308700C1
:101C5000473FF200F21F2D2E2E2E522E2000A809F3
:101C6000A909AA09AB09AC09AD09AE09AF09A80ACF
:101C7000031D4D2EA90A031D4D2EAA0A031D4D2E2C
:101C8000AB0A031D4D2EAC0A031D4D2EAD0A031DDC
:101C90004D2EAE0A031D4D2EAF0A0130F200720820
:101CA0002000B10632308600003087000830F20094
:101CB00000301E00F20B592E2000200821042204BF
:101CC000230424042504260427040319682E692EFE
:101CD000C52EB001B00A782EA035A10DA20DA30D1E
:101CE000A40DA50DA60DA70D0130F2007208B007D6
:101CF000A71F7B2E7C2E6C2EB235B30DB40DB50D07
:101D0000B60DB70DB80DB90D27082F02031DA22E71
:101D100026082E02031DA22E25082D02031DA22E29
:101D200024082C02031DA22E23082B02031DA22E21
:101D300022082A02031DA22E21082902031DA22E19
:101D400020082802031CA52EA62EB72E2008A802C4
:101D50002108A93B2208AA3B2308AB3B2408AC3B43
:101D60002508AD3B2608AE3B2708AF3B3214A7360B
:101D7000A60CA50CA40CA30CA20CA10CA00C013069
:101D8000B002031DC42EC52E7C2E31080319C92EA6
:101D9000CA2EE82EB209B309B409B509B609B709C4
:101DA000B809B909B20A031DE82EB30A031DE82ECB
:101DB000B40A031DE82EB50A031DE82EB60A031D5A
:101DC000E82EB70A031DE82EB80A031DE82EB90A4B
:101DD00020003208A0003308A1003408A200350812
:101DE000A3003608A4003708A5003808A600390863
:101DF000A7000800613474342B34633470346934C0
:101E00006E343D3422343934353439343334223469
:101E10000D340A340034003400340034003400340B
:101E20000034003400340034003400340034003412
:101E30000034003400340034003400340034003402
:101E400000340034003400340034003400340034F2
:101E500000340034003400340034003400340034E2
:101E600000340034003400340034003400340034D2
:101E70000034003453344D345334003400340034CF
:101E800000340034003400340034003400340034B2
:101E900000340034003400340034003400340034A2
:101EA0000034003400340034003400340034003492
:101EB000003400344534523452344F3452340034F8
:101EC0000034003400340034003400340034003472
:101ED0000034003400340034003400340034003462
:101EE0000034003400340034003400340034003452
:101EF000003400340A3488341334613474342B349D
:101F000063346934703473347434613472347434C7
:101F10003D34223455344434503422342C34223469
:101F2000633468347534633468346F346D346134C9
:101F30006C346F342E346534733422342C342234B0
:101F40003234353430343034303422340D340A34C1
:101F500000340034003400340034003400340034E1
:101F600000340034003400340034003400340034D1
:101F70000034003400340034003443344F344E34E1
:101F80004E34453443345434003400340034003487
:101F900000340034003400340034003400340034A1
:101FA0000034003400340034003400340034003491
:101FB0000034003400340034003445345234523498
:101FC0004F345234003400340034003400340034D0
:101FD0000034003400340034003400340034003461
:101FE0000034003400340034003400340034003451
:101FF000003400340034003400340A34A0340F3488
:102000007308F6007208F50009280130F207003065
:10201000F33D72088400730885001200031D112827
:102020001228052875087202F2007608733BF30047
:1020300008000B302100D4008230D5000330D600D8
:102040000030D7006008D9005F08D8006208DB00C4
:102050006108DA0091313E21903109302100C7003A
:102060002730C8006008CA005F08C9006208CC00B9
:102070006108CB008B314F2390310800F9007908BB
:10208000860001308700403FF200413FF3007308B3
:10209000F200F3017908860001308700403FF40028
:1020A000413FF5007408F500F40172087404F7006C
:1020B00073087504F80079088600013087007708F6
:1020C000C03F7808C13F08002000AA00A801A9016C
:1020D0007C282708A500A6012508F4002608F5009D
:1020E0007908F7007808F6009531D5259031013050
:1020F0002000A8070030A93D28082A07A5002508C8
:102100008600013087000108A6002608A7002708DE
:10211000031D8B288C2869280800F60072087304B8
:10212000031993289428A7287635203E860001308D
:1021300087007208C03F7308C13F7408F500760835
:102140002C3E86000130870075088100B628763560
:10215000203E8600013087000030C03F0830C13F7C
:1021600076082C3E860001308700810108009D31F1
:10217000942590312000A001A101D6289C31CD24C6
:102180009031003A0319C528C628BE2875082000DA
:10219000200784007608213D850000089C314A24F0
:1021A000903101302000A0070030A13D78082102C5
:1021B000031DDC2877082002031CDF28E028BE2846
:1021C0000800A7314F27903122003D1CE828E9285C
:1021D000F728A731D0279031003A0319F028F128C9
:1021E000F7280F302000A50025082200BB002200A0
:1021F0003B082000A500A601A535A60D0030250747
:102200008400A030263D8500013F8A00003F0A007F
:1022100091312000A70027082200BB0008002200FF
:102220008C0114308E00373021008C002B308E0052
:1022300023008E0123308C0024008C0122308E007C
:1022400025008C018E01373026008C003F308E0037
:102250003F3027008C003F308E0018303D00A0003A
:1022600015303C00A4001030A00014303D00A40044
:102270001930920002303C00A10008009D319425E5
:1022800091312100DD01DE015E2921005508C800E1
:102290005408C7005908CA005808C9005B08CC0098
:1022A0005A08CB008B314F23913183302100D40762
:1022B0000030D53D0130DD070030DE3D5E08803A5C
:1022C000DC005708803A5C02031D682956085D024D
:1022D000031C6B296C294529080022003D1002309F
:1022E0002000A20022082200BC007E29A7318A27F4
:1022F00091319D29A7318F2791319D292E082000EA
:10230000A2002208A1000430203E86000130870090
:10231000413F8A00403F0A0091312000A300A40100
:102320002408003A031995297A292308023A031947
:102330007629013A031976297A2908002200BD1569
:10234000AE29A7318A279131CF29A731672791314B
:102350000330CF29A7318F279131CF292C082000B6
:10236000A2002208A100220021088A0020080A00F9
:1023700091312000A300A4012408003A0319C129C7
:10238000AA292308013A0319AA29033A0319A12902
:10239000013A0319A129073A0319A529AA29080016
:1023A000A8302100AA002A08AD002508AF002408A3
:1023B000AE00B001B101B201B301AE302000EB00BC
:1023C0000030EC00210027082000EE002100260844
:1023D0002000ED00AD302100AA002A082000EF0007
:1023E000933110239131AE308600003087004231A6
:1023F000403F210024078400413F253D85000030F7
:10240000800008002000A601A7010F2A013020004B
:10241000A0070030A13D0130A6070030A73D2008ED
:1024200086002108870001080319172A182A302A74
:102430002308F3002208F200200886002108870004
:102440000108A400A5012408F4002508F5009E3128
:10245000D92692317208730403192F2A302A062ACA
:1024600020002708A1002608A00008002000A601DF
:10247000A701432A01302000A0070030A13D013010
:10248000A6070030A73D2008860021088700010824
:1024900003194B2A4C2A642A2308F3002208F2006D
:1024A00020088600210887000108A400A50124084F
:1024B000F4002508F5009E31D92692317208730484
:1024C000031D632A642A3A2A20002708A10026084F
:1024D000A00008002000AE0020002E089231D62275
:1024E0009231003A0319752A762A6C2A0630F700D1
:1024F0001E30F8002C302000AD002D08F9009C3172
:10250000932492312B30F2000030F3000130F400BC
:102510000030F5009C31BE2492310030F700F80005
:10252000F9019C31A1249231A731A82792319E3123
:1025300085269231013A03199E2A9F2A972A08007C
:1025400000302000A3000030A2000030A1000030C5
:10255000A000721CAC2AAD2AB62A76082000A0077B
:102560007708A13D7808A23D7908A33D0130F635F2
:10257000F70DF80DF90D890BB72A0130F536F40C7B
:10258000F30CF20C890BBE2A7508740473047204F0
:10259000031DCB2ACC2AA92A20002308F5002208F3
:1025A000F4002108F3002008F2000800F300F40111
:1025B000F40A22003D19DD2ADE2A0E2B7308F200F0
:1025C0007208B600BD103D153D100E30F2007208C5
:1025D000BB00F430B4000130B500BD150030A000E0
:1025E0000830A100AC010030A2000830A300AD010A
:1025F0000030A4000830A500AE010030A60008306D
:10260000A700AF010230A8000030A900B001A73137
:102610004F2792319C3179249231F40174080800DB
:1026200020006E082100A30020006D082100A200F8
:102630002200C601C701382B20006C08DA006B08A5
:10264000D900A2302100A00020082000DB006F0884
:102650002100A10021082000DC0086313C269331B6
:10266000200059082200C60720005A082200C73D52
:10267000210022088400230885001200031D412B3D
:10268000422B1C2B220047082000EC0022004608A9
:102690002000EB0008002000B0002C08AF002F083D
:1026A000B3002E08B2002D08B1002000300892318E
:1026B000D6229331003A03195E2B5F2B552BA130A4
:1026C000F7001E30F80031302000AF002F08F9006D
:1026D0009C31932493312B30F2000030F300013011
:1026E000F4000030F5009C31BE2493310030F70037
:1026F000F800F9019C31A1249331A731A827933127
:102700009E3185269331013A0319872B882B802B24
:1027100008009D31942593310C302100C7009A3078
:10272000C8005508CA005408C9005708CC0056080C
:10273000CB008B314F23933121004808DA00470842
:10274000D9005A08803AD80080305802031DAA2BBD
:1027500001305902031CAD2BAE2BBB2BE830F2002D
:102760000330F3009D317F25933101302100D400E7
:102770000030D500CC2B9D3131259331C330210061
:10278000A400A030A5009E31BD2693319D31942533
:1027900093312100D401D5010800A731642793317A
:1027A0002000A20022003708860038088700200099
:1027B0002208810001302200B7070030B83D013007
:1027C000B9020030BA3B39083A040319E82BE92B67
:1027D000EE2B9C31182493310530192CBD15F82BA4
:1027E000A7319E279331192CA73199279331192CA2
:1027F0002C082000A2002208A100220021088A0043
:1028000020080A0094312000A300A4012408003A03
:1028100003190B2CF42B2308013A0319F42B033A68
:102820000319F02B013A0319F02B073A0319F42B83
:10283000F42B08002000B301B01F1F2C202C272CE4
:10284000AF09B009AF0A0319B00AB301B30AAE1F4A
:102850002A2C2B2C302CAD09AE09AD0A0319AE0A77
:102860002D082E040319352C362C5F2CB201B20A28
:10287000422C0130AD35AE0D890B3A2C0130B10040
:102880003108B207AE1F452C462C392C2E083002D9
:10289000031D4C2C2D082F02031C4F2C502C542CA4
:1028A0002D08AF022E08B03B0130AE36AD0C890BBF
:1028B000552C0130B202031D5E2C5F2C462C3308D0
:1028C0000319632C642C692CAF09B009AF0A0319F2
:1028D000B00A3008AE002F08AD000800200026081E
:1028E00027040319742C752CC12C2708F300260823
:1028F000F20090310020943173082000AB00720880
:10290000AA00B22C2508F3002408F2002708F500DD
:102910002608F4002B08F7002A08F60095317825E0
:10292000943172087304031D962C972C982CC32C99
:1029300020002408013EF2000030253DF300260867
:102940008400270885000008A800A9012808F400D1
:102950002908F5009E31D926943173082000A5007E
:102960007208A400240825040319B72CB82CC12C24
:1029700024088400250885001200031DC02CC12CEA
:10298000822CA401A50108007A1CC72CC82CD12CCC
:1029900020002C08F9002B08F8002D089031642045
:1029A00094312000AF1BD52CD62CDB2C2F08B40083
:1029B0002E08B300DD2CB301B401B101B201F12C3A
:1029C0002030F4000030F50020002C08F7002B0820
:1029D000F6009531D525943101302000B107003043
:1029E000B23D3208803AB0003408803A3002031D0C
:1029F000FB2C33083102031CFE2CFF2CE02C7A1830
:102A0000022D032D0C2D20002C08F9002B08F800B6
:102A10002D0890316420943120002D08F2000130FF
:102A2000F300903100209431200033087207AB008E
:102A30003408733DAC0008009D3194259531210088
:102A4000E801E90121006408D5006308D4006608A4
:102A5000D7006508D60093318923953121005408A9
:102A600055040319342D352D362D472D0130E80737
:102A70000030E93D6908803AE70080306702031DB5
:102A8000432D0A306802031C462D472D222D863027
:102A90002100C7002630C8006408CA006308C900C6
:102AA0006608CC006508CB008B314F2395319530FB
:102AB0002100D4009B30D5000130D6000030D70073
:102AC0006408D9006308D8006608DB006508DA00EE
:102AD00091313E21953121006408E0006308DF0058
:102AE0006608E2006508E100903119209531080080
:102AF00073082000A1007208A0007508A3007408E4
:102B0000A2000130F6020030F73B760A031D8C2D3F
:102B1000770A031D8C2D8D2D9C2DF201F301D42DF0
:102B20000130A0070030A13D0130A2070030A33DD5
:102B30000130F6020030F73B2008840021088500B0
:102B400012000319A42DA52DC42D220884002308EA
:102B5000850012000319AD2DAE2DC42D7608770423
:102B60000319B32DB42DC42D220884002308850039
:102B70000008F80020088400210885000008780675
:102B80000319C32DC42D902D200884002108850031
:102B90000008F80022088400230885000008780255
:102BA000F200F301031CF30308007608770403190D
:102BB000DA2DDB2DE12D76087704031DE02DE12DC4
:102BC000E62D7408A731DC279531322E7608860071
:102BD000770887004431160001040319F02DF12D08
:102BE000122E76088600770887004431403F200087
:102BF000A000413FA1007608860077088700423197
:102C0000403FA200413FA3002308803AA4002108CE
:102C1000803A2402031D0E2E200822020318112ED2
:102C2000122E322E76088600770887004231760809
:102C3000840077088500003F2000A000013FA1002C
:102C4000403F20078400413F213D850074088000FB
:102C500076088600770887004231013081074131CC
:102C60000318810A0800A731D0279631003A0319CA
:102C70003A2E3B2E6E2E482EA73180279631922E6B
:102C8000A73185279631922EA7318F279631922E24
:102C900022002F082000A2002208A1000630203EBA
:102CA000860001308700413F8A00403F0A0096318C
:102CB0002000A300A4012408003A0319602E442E2A
:102CC0002308013A0319442E033A03193C2E013A12
:102CD0000319402E073A0319442E442E22003D10BA
:102CE00038082000A300220037082000A20022009C
:102CF000B70A0319B80A20002208860023088700B3
:102D00000108A7317627963101302200B902003040
:102D1000BA3B39083A04031D8E2E8F2E912E0630B1
:102D2000922E03300800200028082904031D992E44
:102D30009A2EAB2E21006C082000A90021006B0800
:102D40002000A80028082904031DA72EA82EAB2EBA
:102D5000A801A901F52E2908A1002808A0002B0828
:102D6000A3002A08A20092313622963120002008C2
:102D7000A8072108A93D280886002908870001081E
:102D8000031DC32EC42ECB2E2100EB01EC0120002D
:102D9000A801A901F52E2908A1002808A0002B08E8
:102DA000A3002A08A20092310222963120002008B6
:102DB00028072100EB0020002108293D2100EC001C
:102DC0006B0886006C08870001080319E82EE92EBD
:102DD000F32E6B0886006C08870081010130EB0739
:102DE0000030EC3DF52EEB01EC01080089302100AC
:102DF000C7009930C8005508CA005408C9005708D0
:102E0000CC005608CB008B314F239631210055085A
:102E10002000A900210054082000A8002830AA00A2
:102E2000A830AB0096319326963120002908210066
:102E3000D900200028082100D80058085904031997
:102E4000222F232F582F00302000A8000030A90087
:102E50002830AA00A830AB00963193269631200086
:102E600029082100D900200028082100D8000030BE
:102E70002000A8000030A9002830AA00A830AB002C
:102E8000963193269631200029082100D900200090
:102E900028082100D8005908F9005808F80087319F
:102EA0005027963179082100D5007808D4005A2F90
:102EB000D401D50108009D319425973112302100AD
:102EC000A4009B30A500A430A600A030A70057089E
:102ED000A9005608A8009131D02197311230210065
:102EE000C7009B30C8005908CA005808C9005B08D1
:102EF000CC005A08CB008B314F2397312100470873
:102F000048040319842F852FFF2F892F9C31DC243F
:102F10009731A731AD279731003A031D902F912F9C
:102F2000862F21005508F6005408F5005708F800D0
:102F30005608F7009031B72097312A30F500A830B5
:102F4000F6000130F7000030F8009031B7209731DB
:102F50002100580886005908870081015908B500EA
:102F60005808B4005B08B7005A08B600D030B80063
:102F70000730B9000A30DC005C08BA0088316220F2
:102F80009731210059082000A50021005808200091
:102F9000A4001B30A600A830A70094316E249731FE
:102FA000200024082504031DD62FD72FF02F210041
:102FB000580886005908870081015908B50058084B
:102FC000B4005B08B7005A08B600D030B80007302C
:102FD000B9000A30DC005C08BA0088316220973101
:102FE0009D3131259731D1302100A400A030A500BA
:102FF0005908A7005808A6009E31BD269731080041
:10300000613474342B346334733471340D340A34C2
:103010000034003400340034003400340034003410
:103020000034003400340034003400340034003400
:1030300000340034003400340034003400340034F0
:1030400000340034003400340034003400340034E0
:1030500000340034003400340034003400340034D0
:1030600000340034003400340034003400340034C0
:1030700000340034003400340034003400340034B0
:103080003A34003400340034003400340034003466
:103090000034003400340034003400340034003490
:1030A0000034003400340034003400340034003480
:1030B0000034003400340034003400340034003470
:1030C0004534523452344F345234003400340034D6
:1030D0000034003400340034003400340034003450
:1030E0000034003400340034003400340034003440
:1030F0000034003400340034003400340034003430
:103100000A3488341334613474342B3463346934AE
:10311000703473346834753474340D340A340034C4
:1031200000340034003400340034003400340034FF
:1031300000340034003400340034003400340034EF
:1031400000340034003400340034003400340034DF
:1031500000340034003400340034003400340034CF
:1031600000340034003400340034003400340034BF
:1031700000340034003400340034003400340034AF
:103180000034003400344F344B3400340034003405
:10319000003400340034003400340034003400348F
:1031A000003400340034003400340034003400347F
:1031B000003400340034003400340034003400346F
:1031C0000034003400344534523452344F345234D5
:1031D000003400340034003400340034003400344F
:1031E000003400340034003400340034003400343F
:1031F000003400340034003400340034003400342F
:103200000034003400340A348834133461347434A4
:103210002B346334693470347334683475347434E3
:103220000D340A34003400340034003400340034E7
:1032300000340034003400340034003400340034EE
:1032400000340034003400340034003400340034DE
:1032500000340034003400340034003400340034CE
:1032600000340034003400340034003400340034BE
:1032700000340034003400340034003400340034AE
:103280000034003400340034003400344F344B3404
:10329000003400340034003400340034003400348E
:1032A000003400340034003400340034003400347E
:1032B000003400340034003400340034003400346E
:1032C00000340034003400340034003445345234C7
:1032D00052344F345234003400340034003400345B
:1032E000003400340034003400340034003400343E
:1032F000003400340034003400340034003400342E
:103300000034003400340034003400340A346034B3
:10331000EA34613474342B346334623463340D34EE
:103320000A340034003400340034003400340034F3
:1033300000340034003400340034003400340034ED
:1033400000340034003400340034003400340034DD
:1033500000340034003400340034003400340034CD
:1033600000340034003400340034003400340034BD
:1033700000340034003400340034003400340034AD
:10338000003400340034003400340034003400349D
:1033900000343A3400340034003400340034003453
:1033A000003400340034003400340034003400347D
:1033B000003400340034003400340034003400346D
:1033C000003400340034003400340034003400345D
:1033D00000344534523452344F34523400340034C3
:1033E000003400340034003400340034003400343D
:1033F000003400340034003400340034003400342D
:10340000003400340034003400340034003400341C
:1034100000340A34E83403346134743465343034AD
:103420000D340A34003400340034003400340034E5
:1034300000340034003400340034003400340034EC
:1034400000340034003400340034003400340034DC
:1034500000340034003400340034003400340034CC
:1034600000340034003400340034003400340034BC
:1034700000340034003400340034003400340034AC
:10348000003400340034003400340034003400349C
:1034900000340034003400344F344B3400340034F2
:1034A000003400340034003400340034003400347C
:1034B000003400340034003400340034003400346C
:1034C000003400340034003400340034003400345C
:1034D00000340034003400344534523452344F3414
:1034E00052340034003400340034003400340034EA
:1034F000003400340034003400340034003400342C
:10350000003400340034003400340034003400341B
:1035100000340034003400340A34E83403346134B5
:1035200074342B346334733463346C346B343D340F
:1035300032340D340A3400340034003400340034A2
:1035400000340034003400340034003400340034DB
:1035500000340034003400340034003400340034CB
:1035600000340034003400340034003400340034BB
:1035700000340034003400340034003400340034AB
:10358000003400340034003400340034003400349B
:1035900000340034003400340034003400344F343C
:1035A0004B34003400340034003400340034003430
:1035B000003400340034003400340034003400346B
:1035C000003400340034003400340034003400345B
:1035D0000034003400340034003400340034453406
:1035E000523452344F3452340034003400340034F6
:1035F000003400340034003400340034003400342B
:10360000003400340034003400340034003400341A
:1036100000340034003400340034003400340A3400
:1036200064340034613474342B346334693470345A
:10363000733465346E3464340D340A340034003429
:1036400000340034003400340034003400340034DA
:1036500000340034003400340034003400340034CA
:1036600000340034003400340034003400340034BA
:1036700000340034003400340034003400340034AA
:10368000003400340034003400340034003400349A
:10369000003400340034003400340034003400348A
:1036A000003400343E34003400340034003400343C
:1036B000003400340034003400340034003400346A
:1036C000003400340034003400340034003400345A
:1036D000003400340034003400340034003400344A
:1036E000003400344534523452344F3452340034B0
:1036F000003400340034003400340034003400342A
:103700000034003400340034003400340034003419
:103710000034003400340034003400340034003409
:10372000003400343E34E8340334613474342B34D0
:1037300063346E346D3469343D3431342C34323476
:103740002C3430342C3430342C3430340D340A34AE
:1037500000340034003400340034003400340034C9
:1037600000340034003400340034003400340034B9
:1037700000340034003400340034003400340034A9
:103780000034003400340034003400340034003499
:103790000034003400340034003400340034003489
:1037A000003400340034003400344F344B340034DF
:1037B0000034003400340034003400340034003469
:1037C0000034003400340034003400340034003459
:1037D0000034003400340034003400340034003449
:1037E0000034003400340034003445345234523450
:1037F0004F34523400340034003400340034003488
:103800000034003400340034003400340034003418
:103810000034003400340034003400340034003408
:10382000003400340034003400340A34643400348A
:103830002400961216160800A33021009E009F0156
:103840009B019C0101309D00080024009401083078
:1038500095009601133092009512080060303200F6
:1038600099009B019D0104309F009E0108002200E9
:103870003D140314360DA73176279C31053008001E
:1038800001302200C2070030C33D0030C43D00308B
:10389000C53D0800F2002000111E4F2C502C4B2C6F
:1038A000720823009A000800640080010131013091
:1038B000FE020030FF3B7F087E04031D552C0034C0
:1038C000FE0012001E000130FE020030FF3B7F08A8
:1038D0007E04031D612C0034732CA731D6279C3144
:1038E0009031E1209C312200BD18772C782C6D2C72
:1038F00008002400951A7D2C7E2C852C940108301C
:1039000095009601133092009516080021005C087E
:10391000D5005B08D4005E08D7005D08D60093315F
:1039200089239C3108007808F3007708F2007908B1
:103930002000A0002008F400003090318D209C3140
:1039400008007808F3007708F20079082000A0004A
:103950002008F400023090318D209C3108002000B6
:10396000901222004E084F040319B72CB82CBD2C1E
:103970004F088A004E080A009C3108002200BD1D35
:10398000C22CC32CCC2C7308B8007208B700750881
:10399000BA007408B900BD110800F2012000111E20
:1039A000D22CD32CDA2C23009E1ED72CD82CDA2C28
:1039B000F201F20A720808002000911EE02CE12CAE
:1039C000DC2C2100EF0123009D1CE72CE82CEA2CC5
:1039D0001D121D161908080020001B1DF02CF12CCB
:1039E000F82C1B1071089A00700899001B14FC2C0D
:1039F00071089A007008990008008F302100C700F4
:103A00009A30C8005508CA005408C9005708CC00AD
:103A10005608CB008B314F239C3108000630210023
:103A2000C7009930C8005508CA005408C900570893
:103A3000CC005608CB008B314F239D31080003305A
:103A4000F2000030F3009D317F259D3111303C00A4
:103A5000A4000330F2000030F3009D317F259D313A
:103A600008000330F2000030F3009D317F259D31C6
:103A700014303D00A200A4010330F2000030F30036
:103A80009D317F259D3108002000B6003B30B400F9
:103A90003408AB003608B5003508AC000630AD0080
:103AA0000030AE00683093314B239D310800443024
:103AB000200098007C30960095019012210090160D
:103AC0004B30F2002730F300A731C4279D318030FE
:103AD0002000970008008B1322004508F9004408D5
:103AE000F8004308F7004208F6008B177908F50044
:103AF0007808F4007708F3007608F2000800872DB4
:103B00000330F4009830890B832DF40B832D0130A2
:103B1000F2020030F33B720A031D922D730A031D5B
:103B2000922D932D802D08000330F2000030F30019
:103B30009D317F259D313D00A2011430A400153038
:103B40003C00A4000330F2000030F3009D317F25DB
:103B50009D3108002000111022005308F100520886
:103B6000F0009C31EC249D312200500851040319CF
:103B7000BA2DBB2DC02D51088A0050080A009D3176
:103B8000080020002108F200FF39031D0030F30077
:103B90000230F4000030F5009C31BE249D3100302D
:103BA000F700F800F9019C3193249D31043008009E
:103BB00020002108F200FF39031D0030F30001301E
:103BC000F4000030F5009C31BE249D310030F70038
:103BD000F800F9019C3193249D3102300800200047
:103BE0002108F200FF39031D0030F3000230F40019
:103BF0000030F5009C31BE249D310030F700F80004
:103C0000F9019C3193249D310230080020002108E5
:103C1000F200FF39031D0030F3000130F4000030E2
:103C2000F5009C31BE249E310030F700F800F90108
:103C30009C3193249E31043008007208D03EF40079
:103C4000FF30733DF500003075020A30031974022D
:103C5000031C2B2E2D2E01302E2E0030F600F701E6
:103C60007608F2007708F30008007608803AF7003B
:103C700080307702031D3E2E013075020318412E5D
:103C8000422E4E2E7509F7007609F800F70A03193F
:103C9000F80A7708F5007808F6004E2E0800200094
:103CA0009C0186309A00E830990011101A08220011
:103CB000D300200019082200D20021001114FF3087
:103CC000F2000730F300A731CA279E31C13020002F
:103CD0009B0008006B302000AF002F08AB0028309D
:103CE000B0003008AC00683092316A229E316C30EE
:103CF0002000AF002F08AB000730B0003008AC0048
:103D0000683092316A229E310800F301F30A2200E2
:103D1000BD188B2E8C2E9F2E3D11FF30F2007208A5
:103D2000B600A7314F279E31A73155279E31A731C5
:103D300052279E3122003C08F2007208F3007308FB
:103D4000080020002108023E860087010108F200D9
:103D50000130F300210886008701403FF400413F15
:103D6000F5009C31BE249E310030F700F800F901C7
:103D70009C3193249E3102300800A6302100B0000F
:103D80003008B30000302000EB000030EC002100D0
:103D900025082000EE00210024082000ED00B330AB
:103DA0002100B00030082000EF00933110239E3135
:103DB0000800720884007308850000087406031D5B
:103DC000E22EE32EE42EF62E7308F7007208F600BA
:103DD000F20A0319F30A76088400770885001200B6
:103DE000031DF32EF42ED92EF201F3010800A731A2
:103DF000F0279E319C3125249E3191310F219E3137
:103E00009C312E249E31A7316E279E31A7316A271F
:103E10009E319C311C249E319E314F269E319D3116
:103E200057259E319F3197279E310800F601F701F3
:103E3000721C1B2F1C2F202F7408F6077508F73DE6
:103E40000130F435F50D890B212F0130F336F20CDA
:103E5000890B262F72087304031D2F2F302F182F64
:103E60007708F3007608F20008006B302000AF00FE
:103E70002F08AB00AC01AC0A683092316A229F3146
:103E80001B302000AF002F08AB00AC01683092312E
:103E90006A229F311C302000AF002F08AB00AC011C
:103EA000683092316A229F3108005E2F1530890BED
:103EB000572F00002030F2020030F33B0030730235
:103EC0002030031972020318662F672F562F692FAF
:103ED00000320130F2020030F33B720A031D742FEE
:103EE000730A031D742F752F682F0800F601F60A58
:103EF00020307206730403197E2F7F2F8F2F7208D4
:103F0000F73EF400FF30733DF500003075020530D8
:103F100003197402031C8D2F8E2F8F2FF601760844
:103F2000F400F5017408F2007508F3000800083089
:103F300023009F0090309D0024309E00CF309B00D6
:103F40009C010030F2000030F300A731B8279F3108
:103F50000030F2000030F300A731BE279F3100305F
:103F6000F2000030F300A731B2279F312100EF01AA
:103F700008002000A900AA01AA0A2200BD18C12F2A
:103F8000C22FD92FBD142000AA0129080319C92F57
:103F9000CA2FCE2F2200BB01BB0AD32F0230A800AC
:103FA00028082200BB00A73158279F319C316C2480
:103FB0009F3120002A080800F2007208043E8600A3
:103FC000013087000030C03FC13F72080F3E8600BD
:103FD0000130870081017208063E860001308700AB
:103FE0000030C03FC13F7208103E8600013087009C
:103FF000810172080E3E86000130870081010800B1
:104000007B34273437341C34F834273433341634B3
:10401000CD341334E23427349E34113480342734C1
:10402000853427348A3427348F3427349434273422
:10403000993427349E342734A33427346D34113413
:104040004C344F344E343A34253464342E342534D1
:10405000643420344C34413454343A342534643498
:104060002E342534643420345334413454343A34B7
:10407000253464340D340A340034243450344D343F
:1040800054344B343334353433342C3431342C34CD
:1040900031342C3431342C3430342C3430342A3410
:1040A000323441340D340A340034463461346C34D3
:1040B0006C3461342D343E34253473342C34203444
:1040C0005234453453343D343E34253473340D3446
:1040D0000A3400344534583445344F344B342D348D
:1040E0003E34253473342C345234453453343D3407
:1040F0003E34253473340D340A34003458343A34A1
:10410000203425346434203459343A34203425346E
:10411000643420345A343A342034253464340D3431
:104120000A34003424345034513447344C3450343D
:104130002C3457342C3431342C3431342A34323446
:1041400031340D340A340034613474342B34633424
:1041500069347034733465346E3464343D342534DA
:1041600064340D340A340034523474346F3475348A
:10417000743420344E3443343D343E342534643476
:104180000D340A340034463461346C346C34613498
:10419000203449344E3449342E342E340D340A340C
:1041A0000034533445344E3444345234453443346B
:1041B0003D343E34253473340D340A3400345234E3
:1041C0004734503453343D343E344E344F345234FB
:1041D000453443340A34003454344F345534543461
:1041E0002D343E34253473340D340A3400345234C3
:1041F0004734503453343D343E34253473340A3418
:1042000000344234413454343D343E342534643433
:064210000D340A340034F5
:104E96000800200097170800200091110800240040
:104EA600951208002100911108002400161408002C
:104EB60024009614080024001615080024009615F0
:104EC6000800240011080800200091150800813010
:104ED60022009700080016302100970008002400E1
:104EE600961616160800F2007208240091000800B3
:104EF6002200BD10BC010E300800A7315B27A73188
:104F060001300800A7315B27A73102300800A7311E
:104F16005B27A73101300800A7315E27A731003093
:104F260008009C311824A73105300800A7317227E4
:104F3600A7310A300800A7317227A73109300800C7
:104F46002200BD10BC010E30080000309F31B92789
:104F5600A73108002000110E890C013908007308DA
:104F66002200D5007208D400080073082200D90078
:104F76007208D800080073082200D7007208D6000D
:104F8600080073082200CF007208CE0008007308DC
:104F96002200D1007208D00008002400160E890CE9
:104FA600890C013908002000911DDA2FDB2FD62F3E
:104FB6000800F30073089C314A24A7310800220038
:104FC6003D10A7316127A7310430080028346E341C
:104FD60075346C346C3429340034320091019201FA
:104FE6009301940195019601080022003D1436357F
:104FF600A7317627A73103300800243450345134C2
:1050060047344C3450340034243447345034473415
:1050160047344134003448346F346C3461340D34D1
:105026000A340034243450344D3454344B34003470
:10503600533445344E344434003468346F346C345D
:10504600613400342534733400342C3400341A347B
:020000040001F9
:08000E00EC3FF33FFF3FFF3F11
:00000001FF
